:1008F500456C656374726F6E696357494E47530063
:0C09050048656C6C6F20576F726C6400CA
:08089100C2A1D2A27F017E008A
:10089900E4FDFCC3ED9FEC9E5015E4FBFA0BBB0095
:0F08A900010AEB64704A70F50DBD00010C80E48C
:0108B800221D
:0E0911008F90C2A0120891C2A27F0502089921
:0E091F008F90D2A0120891C2A27F0502089903
:060866008B0D8A0E890FC4
:10086C00E4F510F511AB0DAA0EA90F8511828510B8
:10087C0083120839FF600D12091F0511E51170E58F
:04088C00051080E1F2
:010890002245
:100800008F088D098B0A8A0B890CEF3395E04F70A6
:1008100008E509540F44808013AF08EF3395E0FEDC
:10082000EF64014E700AE509540F44C0FF1209112C
:09083000AB0AAA0BA90C02086630
:1008B9007F147E001208997F381209117F0C1209E2
:1008C900117F061209117F011209117F8002091196
:1008D9001208B97BFF7A0879F51208667FC01209F8
:0C08E900117BFF7A09790512086680FE79
:0300000002092DC5
:0C092D00787FE4F6D8FD7581110208D92E
:10083900BB010CE58229F582E5833AF583E0225074
:1008490006E92582F8E622BBFE06E92582F8E222BE
:0D085900E58229F582E5833AF583E49322D8
:00000001FF
