:040A0300E4F5A02254
:100991007C007D19120935E47B05FAF9F81208A3E8
:1009A1008F0B8E0A8D098C08E47B62FAF9F8120824
:0B09B100A38F0B8E0A8D098C088FA00D
:0109BC002218
:1009BD00E4F580F590F5A0F5B0120A0375A0FF7F60
:1009CD00017E00120962E4F5A07F01FE120962802A
:0109DD00EB2E
:040962008E0C8F0D5B
:10096600E4F50EF50FAE0CAF0D7C007D14120800F9
:10097600C3E50F9FE50E9E50117F507EC31209DE20
:0A098600050FE50F70DF050E80DBA2
:010990002244
:1009DE007C007D0F120812E4FDFCC3ED9FEC9E50CF
:0809EE00070DBD00010C80F2B1
:0109F60022DE
:030000000209F7FB
:0C09F700787FE4F6D8FD75810F0209BD81
:10080000EF8DF0A4A8F0CF8CF0A428CE8DF0A42E0C
:02081000FE22C6
:10081200BC000BBE0029EF8DF084FFADF022E4CCCA
:10082200F875F008EF2FFFEE33FEEC33FCEE9DEC93
:10083200984005FCEE9DFE0FD5F0E9E4CEFD22EDD9
:10084200F8F5F0EE8420D21CFEADF075F008EF2F23
:10085200FFED33FD4007985006D5F0F222C398FD14
:050862000FD5F0EA22B1
:1008670075F008758200EF2FFFEE33FECD33CDCC48
:1008770033CCC58233C5829BED9AEC99E5829840CB
:100887000CF582EE9BFEED9AFDEC99FC0FD5F0D6A8
:10089700E4CEFBE4CDFAE4CCF9A88222B800C1B9D2
:1008A7000059BA002DEC8BF084CFCECDFCE5F0CB10
:1008B700F97818EF2FFFEE33FEED33FDEC33FCEB49
:1008C70033FB10D703994004EB99FB0FD8E5E4F904
:1008D700FA227818EF2FFFEE33FEED33FDEC33FCF1
:1008E700C933C910D7059BE99A4007EC9BFCE99AE5
:1008F700F90FD8E0E4C9FAE4CCFB2275F010EF2F2A
:10090700FFEE33FEED33FDCC33CCC833C810D70729
:100917009BEC9AE899400AED9BFDEC9AFCE899F864
:0E0927000FD5F0DAE4CDFBE4CCFAE4C8F922F7
:10093500EC8EF0A4CCC5F0CCCDF8EFA4CEC5F02D4F
:10094500FDE43CFCE8A42EC8C5F03DFDE43CFCEF0D
:0D095500A4FFE5F028FEE43DFDE43CFC229B
:00000001FF
